:060000000A128A11C02F54
:100EFA00773441343B346B344D346E347E3443346E
:100F0A007F346F347E088A007F0882000A128A11B1
:100F1A0087270A128A118000840A04087D060319A9
:100F2A000034FF0A0319FE0A8B2F83160313860166
:100F3A00FD017D08703E84000008831203138600B9
:100F4A000330FC008A30FB005530FA00FA0BAB2F55
:100F5A00FB0BAB2FFC0BAB2FB22F0130FA007A0838
:100F6A00FD070A307D06031DBB2FBC2F9E2F9D2F28
:100F7A000A128A1100280A128A117D270A128A1176
:100F8A00F0000A128A117E270A128A11F1000A1247
:100F9A008A117F270A128A11F2000A128A118027FF
:100FAA000A128A11F3000A128A1181270A128A1177
:100FBA00F4000A128A1182270A128A11F5000A120B
:100FCA008A1183270A128A11F6000A128A118427C3
:100FDA000A128A11F7000A128A1185270A128A113F
:100FEA00F8000A128A1186270A128A11F900830167
:060FFA000A128A119A2F71
:08400000FF3FFF3FFF3FFF3FC0
:04400E00F22FFF3F4F
:00000001FF
