:060000000A128A11FC2F18
:100F8C00831603138601831603178901FF3083121E
:100F9C000313880083120313081CD52FD62FF72FA9
:100FAC00080886000230F2004530F100A930F0004C
:100FBC00F00BDE2FF10BDE2FF20BDE2FE52F0130C5
:100FCC008312031386000230F2004530F100A93081
:100FDC00F000F00BEF2FF10BEF2FF20BEF2FF62FA2
:100FEC00D02F8601D02F0A128A11002883010A12F1
:040FFC008A11C62F61
:08400000FF3FFF3FFF3FFF3FC0
:04400E00F22FFF3F4F
:00000001FF
